{
  "_format": "hh-sol-artifact-1",
  "contractName": "EcoToken",
  "sourceName": "contracts/Lock.sol",
  "abi": [
    {
      "inputs": [],
      "stateMutability": "nonpayable",
      "type": "constructor"
    },
    {
      "inputs": [],
      "name": "AccessControlBadConfirmation",
      "type": "error"
    },
    {
      "inputs": [
        {
          "internalType": "address",
          "name": "account",
          "type": "address"
        },
        {
          "internalType": "bytes32",
          "name": "neededRole",
          "type": "bytes32"
        }
      ],
      "name": "AccessControlUnauthorizedAccount",
      "type": "error"
    },
    {
      "inputs": [
        {
          "internalType": "address",
          "name": "spender",
          "type": "address"
        },
        {
          "internalType": "uint256",
          "name": "allowance",
          "type": "uint256"
        },
        {
          "internalType": "uint256",
          "name": "needed",
          "type": "uint256"
        }
      ],
      "name": "ERC20InsufficientAllowance",
      "type": "error"
    },
    {
      "inputs": [
        {
          "internalType": "address",
          "name": "sender",
          "type": "address"
        },
        {
          "internalType": "uint256",
          "name": "balance",
          "type": "uint256"
        },
        {
          "internalType": "uint256",
          "name": "needed",
          "type": "uint256"
        }
      ],
      "name": "ERC20InsufficientBalance",
      "type": "error"
    },
    {
      "inputs": [
        {
          "internalType": "address",
          "name": "approver",
          "type": "address"
        }
      ],
      "name": "ERC20InvalidApprover",
      "type": "error"
    },
    {
      "inputs": [
        {
          "internalType": "address",
          "name": "receiver",
          "type": "address"
        }
      ],
      "name": "ERC20InvalidReceiver",
      "type": "error"
    },
    {
      "inputs": [
        {
          "internalType": "address",
          "name": "sender",
          "type": "address"
        }
      ],
      "name": "ERC20InvalidSender",
      "type": "error"
    },
    {
      "inputs": [
        {
          "internalType": "address",
          "name": "spender",
          "type": "address"
        }
      ],
      "name": "ERC20InvalidSpender",
      "type": "error"
    },
    {
      "anonymous": false,
      "inputs": [
        {
          "indexed": true,
          "internalType": "address",
          "name": "owner",
          "type": "address"
        },
        {
          "indexed": true,
          "internalType": "address",
          "name": "spender",
          "type": "address"
        },
        {
          "indexed": false,
          "internalType": "uint256",
          "name": "value",
          "type": "uint256"
        }
      ],
      "name": "Approval",
      "type": "event"
    },
    {
      "anonymous": false,
      "inputs": [
        {
          "indexed": true,
          "internalType": "bytes32",
          "name": "role",
          "type": "bytes32"
        },
        {
          "indexed": true,
          "internalType": "bytes32",
          "name": "previousAdminRole",
          "type": "bytes32"
        },
        {
          "indexed": true,
          "internalType": "bytes32",
          "name": "newAdminRole",
          "type": "bytes32"
        }
      ],
      "name": "RoleAdminChanged",
      "type": "event"
    },
    {
      "anonymous": false,
      "inputs": [
        {
          "indexed": true,
          "internalType": "bytes32",
          "name": "role",
          "type": "bytes32"
        },
        {
          "indexed": true,
          "internalType": "address",
          "name": "account",
          "type": "address"
        },
        {
          "indexed": true,
          "internalType": "address",
          "name": "sender",
          "type": "address"
        }
      ],
      "name": "RoleGranted",
      "type": "event"
    },
    {
      "anonymous": false,
      "inputs": [
        {
          "indexed": true,
          "internalType": "bytes32",
          "name": "role",
          "type": "bytes32"
        },
        {
          "indexed": true,
          "internalType": "address",
          "name": "account",
          "type": "address"
        },
        {
          "indexed": true,
          "internalType": "address",
          "name": "sender",
          "type": "address"
        }
      ],
      "name": "RoleRevoked",
      "type": "event"
    },
    {
      "anonymous": false,
      "inputs": [
        {
          "indexed": true,
          "internalType": "address",
          "name": "user",
          "type": "address"
        },
        {
          "indexed": false,
          "internalType": "uint256",
          "name": "amount",
          "type": "uint256"
        },
        {
          "indexed": false,
          "internalType": "string",
          "name": "activityType",
          "type": "string"
        }
      ],
      "name": "TokensMinted",
      "type": "event"
    },
    {
      "anonymous": false,
      "inputs": [
        {
          "indexed": true,
          "internalType": "address",
          "name": "from",
          "type": "address"
        },
        {
          "indexed": true,
          "internalType": "address",
          "name": "to",
          "type": "address"
        },
        {
          "indexed": false,
          "internalType": "uint256",
          "name": "value",
          "type": "uint256"
        }
      ],
      "name": "Transfer",
      "type": "event"
    },
    {
      "inputs": [],
      "name": "DEFAULT_ADMIN_ROLE",
      "outputs": [
        {
          "internalType": "bytes32",
          "name": "",
          "type": "bytes32"
        }
      ],
      "stateMutability": "view",
      "type": "function"
    },
    {
      "inputs": [],
      "name": "VALIDATOR_ROLE",
      "outputs": [
        {
          "internalType": "bytes32",
          "name": "",
          "type": "bytes32"
        }
      ],
      "stateMutability": "view",
      "type": "function"
    },
    {
      "inputs": [
        {
          "internalType": "address",
          "name": "",
          "type": "address"
        }
      ],
      "name": "actionsApproved",
      "outputs": [
        {
          "internalType": "uint256",
          "name": "",
          "type": "uint256"
        }
      ],
      "stateMutability": "view",
      "type": "function"
    },
    {
      "inputs": [
        {
          "internalType": "address",
          "name": "validator",
          "type": "address"
        }
      ],
      "name": "addValidator",
      "outputs": [],
      "stateMutability": "nonpayable",
      "type": "function"
    },
    {
      "inputs": [
        {
          "internalType": "address",
          "name": "owner",
          "type": "address"
        },
        {
          "internalType": "address",
          "name": "spender",
          "type": "address"
        }
      ],
      "name": "allowance",
      "outputs": [
        {
          "internalType": "uint256",
          "name": "",
          "type": "uint256"
        }
      ],
      "stateMutability": "view",
      "type": "function"
    },
    {
      "inputs": [
        {
          "internalType": "address",
          "name": "spender",
          "type": "address"
        },
        {
          "internalType": "uint256",
          "name": "value",
          "type": "uint256"
        }
      ],
      "name": "approve",
      "outputs": [
        {
          "internalType": "bool",
          "name": "",
          "type": "bool"
        }
      ],
      "stateMutability": "nonpayable",
      "type": "function"
    },
    {
      "inputs": [
        {
          "internalType": "address",
          "name": "account",
          "type": "address"
        }
      ],
      "name": "balanceOf",
      "outputs": [
        {
          "internalType": "uint256",
          "name": "",
          "type": "uint256"
        }
      ],
      "stateMutability": "view",
      "type": "function"
    },
    {
      "inputs": [],
      "name": "decimals",
      "outputs": [
        {
          "internalType": "uint8",
          "name": "",
          "type": "uint8"
        }
      ],
      "stateMutability": "view",
      "type": "function"
    },
    {
      "inputs": [
        {
          "internalType": "bytes32",
          "name": "role",
          "type": "bytes32"
        }
      ],
      "name": "getRoleAdmin",
      "outputs": [
        {
          "internalType": "bytes32",
          "name": "",
          "type": "bytes32"
        }
      ],
      "stateMutability": "view",
      "type": "function"
    },
    {
      "inputs": [
        {
          "internalType": "bytes32",
          "name": "role",
          "type": "bytes32"
        },
        {
          "internalType": "address",
          "name": "account",
          "type": "address"
        }
      ],
      "name": "grantRole",
      "outputs": [],
      "stateMutability": "nonpayable",
      "type": "function"
    },
    {
      "inputs": [
        {
          "internalType": "bytes32",
          "name": "role",
          "type": "bytes32"
        },
        {
          "internalType": "address",
          "name": "account",
          "type": "address"
        }
      ],
      "name": "hasRole",
      "outputs": [
        {
          "internalType": "bool",
          "name": "",
          "type": "bool"
        }
      ],
      "stateMutability": "view",
      "type": "function"
    },
    {
      "inputs": [],
      "name": "name",
      "outputs": [
        {
          "internalType": "string",
          "name": "",
          "type": "string"
        }
      ],
      "stateMutability": "view",
      "type": "function"
    },
    {
      "inputs": [
        {
          "internalType": "address",
          "name": "validator",
          "type": "address"
        }
      ],
      "name": "removeValidator",
      "outputs": [],
      "stateMutability": "nonpayable",
      "type": "function"
    },
    {
      "inputs": [
        {
          "internalType": "bytes32",
          "name": "role",
          "type": "bytes32"
        },
        {
          "internalType": "address",
          "name": "callerConfirmation",
          "type": "address"
        }
      ],
      "name": "renounceRole",
      "outputs": [],
      "stateMutability": "nonpayable",
      "type": "function"
    },
    {
      "inputs": [
        {
          "internalType": "bytes32",
          "name": "role",
          "type": "bytes32"
        },
        {
          "internalType": "address",
          "name": "account",
          "type": "address"
        }
      ],
      "name": "revokeRole",
      "outputs": [],
      "stateMutability": "nonpayable",
      "type": "function"
    },
    {
      "inputs": [
        {
          "internalType": "address",
          "name": "user",
          "type": "address"
        },
        {
          "internalType": "uint256",
          "name": "amount",
          "type": "uint256"
        },
        {
          "internalType": "string",
          "name": "activityType",
          "type": "string"
        }
      ],
      "name": "rewardUser",
      "outputs": [],
      "stateMutability": "nonpayable",
      "type": "function"
    },
    {
      "inputs": [
        {
          "internalType": "bytes4",
          "name": "interfaceId",
          "type": "bytes4"
        }
      ],
      "name": "supportsInterface",
      "outputs": [
        {
          "internalType": "bool",
          "name": "",
          "type": "bool"
        }
      ],
      "stateMutability": "view",
      "type": "function"
    },
    {
      "inputs": [],
      "name": "symbol",
      "outputs": [
        {
          "internalType": "string",
          "name": "",
          "type": "string"
        }
      ],
      "stateMutability": "view",
      "type": "function"
    },
    {
      "inputs": [],
      "name": "totalSupply",
      "outputs": [
        {
          "internalType": "uint256",
          "name": "",
          "type": "uint256"
        }
      ],
      "stateMutability": "view",
      "type": "function"
    },
    {
      "inputs": [
        {
          "internalType": "address",
          "name": "to",
          "type": "address"
        },
        {
          "internalType": "uint256",
          "name": "value",
          "type": "uint256"
        }
      ],
      "name": "transfer",
      "outputs": [
        {
          "internalType": "bool",
          "name": "",
          "type": "bool"
        }
      ],
      "stateMutability": "nonpayable",
      "type": "function"
    },
    {
      "inputs": [
        {
          "internalType": "address",
          "name": "from",
          "type": "address"
        },
        {
          "internalType": "address",
          "name": "to",
          "type": "address"
        },
        {
          "internalType": "uint256",
          "name": "value",
          "type": "uint256"
        }
      ],
      "name": "transferFrom",
      "outputs": [
        {
          "internalType": "bool",
          "name": "",
          "type": "bool"
        }
      ],
      "stateMutability": "nonpayable",
      "type": "function"
    }
  ],
  "bytecode": "0x608060405234801562000010575f80fd5b506040518060400160405280600881526020016722b1b7aa37b5b2b760c11b8152506040518060400160405280600381526020016245434f60e81b81525081600390816200005f919062000201565b5060046200006e828262000201565b506200007f91505f905033620000b3565b50620000ac7f21702c8af46127c7fa207f89d0b0a8441bb32959a0ac7df790e9ab1a25c9892633620000b3565b50620002cd565b5f8281526005602090815260408083206001600160a01b038516845290915281205460ff166200015a575f8381526005602090815260408083206001600160a01b03861684529091529020805460ff19166001179055620001113390565b6001600160a01b0316826001600160a01b0316847f2f8788117e7eff1d82e926ec794901d17c78024a50270940304540a733656f0d60405160405180910390a45060016200015d565b505f5b92915050565b634e487b7160e01b5f52604160045260245ffd5b600181811c908216806200018c57607f821691505b602082108103620001ab57634e487b7160e01b5f52602260045260245ffd5b50919050565b601f821115620001fc57805f5260205f20601f840160051c81016020851015620001d85750805b601f840160051c820191505b81811015620001f9575f8155600101620001e4565b50505b505050565b81516001600160401b038111156200021d576200021d62000163565b62000235816200022e845462000177565b84620001b1565b602080601f8311600181146200026b575f8415620002535750858301515b5f19600386901b1c1916600185901b178555620002c5565b5f85815260208120601f198616915b828110156200029b578886015182559484019460019091019084016200027a565b5085821015620002b957878501515f19600388901b60f8161c191681555b505060018460011b0185555b505050505050565b610d7b80620002db5f395ff3fe608060405234801561000f575f80fd5b5060043610610132575f3560e01c80634d238c8e116100b4578063a217fddf11610079578063a217fddf14610280578063a9059cbb14610287578063c49baebe1461029a578063d547741f146102ae578063dd62ed3e146102c1578063eb307ff8146102f9575f80fd5b80634d238c8e14610217578063649061981461022a57806370a082311461023d57806391d148541461026557806395d89b4114610278575f80fd5b8063248a9ca3116100fa578063248a9ca3146101ab5780632f2ff15d146101cd578063313ce567146101e257806336568abe146101f157806340a141ff14610204575f80fd5b806301ffc9a71461013657806306fdde031461015e578063095ea7b31461017357806318160ddd1461018657806323b872dd14610198575b5f80fd5b610149610144366004610aa1565b610318565b60405190151581526020015b60405180910390f35b61016661034e565b6040516101559190610acf565b610149610181366004610b36565b6103de565b6002545b604051908152602001610155565b6101496101a6366004610b5e565b6103f5565b61018a6101b9366004610b97565b5f9081526005602052604090206001015490565b6101e06101db366004610bae565b610418565b005b60405160128152602001610155565b6101e06101ff366004610bae565b610442565b6101e0610212366004610bd8565b61047a565b6101e0610225366004610bd8565b61049f565b6101e0610238366004610bf1565b6104c0565b61018a61024b366004610bd8565b6001600160a01b03165f9081526020819052604090205490565b610149610273366004610bae565b6105e9565b610166610613565b61018a5f81565b610149610295366004610b36565b610622565b61018a5f80516020610d2683398151915281565b6101e06102bc366004610bae565b61062f565b61018a6102cf366004610c71565b6001600160a01b039182165f90815260016020908152604080832093909416825291909152205490565b61018a610307366004610bd8565b60066020525f908152604090205481565b5f6001600160e01b03198216637965db0b60e01b148061034857506301ffc9a760e01b6001600160e01b03198316145b92915050565b60606003805461035d90610c99565b80601f016020809104026020016040519081016040528092919081815260200182805461038990610c99565b80156103d45780601f106103ab576101008083540402835291602001916103d4565b820191905f5260205f20905b8154815290600101906020018083116103b757829003601f168201915b5050505050905090565b5f336103eb818585610653565b5060019392505050565b5f33610402858285610660565b61040d8585856106d6565b506001949350505050565b5f8281526005602052604090206001015461043281610733565b61043c8383610740565b50505050565b6001600160a01b038116331461046b5760405163334bd91960e11b815260040160405180910390fd5b61047582826107d1565b505050565b5f61048481610733565b61049b5f80516020610d268339815191528361062f565b5050565b5f6104a981610733565b61049b5f80516020610d2683398151915283610418565b5f80516020610d268339815191526104d781610733565b6001600160a01b0385166105245760405162461bcd60e51b815260206004820152600f60248201526e496e76616c6964206164647265737360881b60448201526064015b60405180910390fd5b5f84116105645760405162461bcd60e51b815260206004820152600e60248201526d125b9d985b1a5908185b5bdd5b9d60921b604482015260640161051b565b61056e858561083c565b6001600160a01b0385165f908152600660205260408120805460019290610596908490610cd1565b92505081905550846001600160a01b03167f9d89e36eadf856db0ad9ffb5a569e07f95634dddd9501141ecf04820484ad0dc8585856040516105da93929190610cf0565b60405180910390a25050505050565b5f9182526005602090815260408084206001600160a01b0393909316845291905290205460ff1690565b60606004805461035d90610c99565b5f336103eb8185856106d6565b5f8281526005602052604090206001015461064981610733565b61043c83836107d1565b6104758383836001610870565b6001600160a01b038381165f908152600160209081526040808320938616835292905220545f1981101561043c57818110156106c857604051637dc7a0d960e11b81526001600160a01b0384166004820152602481018290526044810183905260640161051b565b61043c84848484035f610870565b6001600160a01b0383166106ff57604051634b637e8f60e11b81525f600482015260240161051b565b6001600160a01b0382166107285760405163ec442f0560e01b81525f600482015260240161051b565b610475838383610942565b61073d8133610a68565b50565b5f61074b83836105e9565b6107ca575f8381526005602090815260408083206001600160a01b03861684529091529020805460ff191660011790556107823390565b6001600160a01b0316826001600160a01b0316847f2f8788117e7eff1d82e926ec794901d17c78024a50270940304540a733656f0d60405160405180910390a4506001610348565b505f610348565b5f6107dc83836105e9565b156107ca575f8381526005602090815260408083206001600160a01b0386168085529252808320805460ff1916905551339286917ff6391f5c32d9c69d2a47ea670b442974b53935d1edc7fd64eb21e047a839171b9190a4506001610348565b6001600160a01b0382166108655760405163ec442f0560e01b81525f600482015260240161051b565b61049b5f8383610942565b6001600160a01b0384166108995760405163e602df0560e01b81525f600482015260240161051b565b6001600160a01b0383166108c257604051634a1406b160e11b81525f600482015260240161051b565b6001600160a01b038085165f908152600160209081526040808320938716835292905220829055801561043c57826001600160a01b0316846001600160a01b03167f8c5be1e5ebec7d5bd14f71427d1e84f3dd0314c0f7b2291e5b200ac8c7c3b9258460405161093491815260200190565b60405180910390a350505050565b6001600160a01b03831661096c578060025f8282546109619190610cd1565b909155506109dc9050565b6001600160a01b0383165f90815260208190526040902054818110156109be5760405163391434e360e21b81526001600160a01b0385166004820152602481018290526044810183905260640161051b565b6001600160a01b0384165f9081526020819052604090209082900390555b6001600160a01b0382166109f857600280548290039055610a16565b6001600160a01b0382165f9081526020819052604090208054820190555b816001600160a01b0316836001600160a01b03167fddf252ad1be2c89b69c2b068fc378daa952ba7f163c4a11628f55a4df523b3ef83604051610a5b91815260200190565b60405180910390a3505050565b610a7282826105e9565b61049b5760405163e2517d3f60e01b81526001600160a01b03821660048201526024810183905260440161051b565b5f60208284031215610ab1575f80fd5b81356001600160e01b031981168114610ac8575f80fd5b9392505050565b5f602080835283518060208501525f5b81811015610afb57858101830151858201604001528201610adf565b505f604082860101526040601f19601f8301168501019250505092915050565b80356001600160a01b0381168114610b31575f80fd5b919050565b5f8060408385031215610b47575f80fd5b610b5083610b1b565b946020939093013593505050565b5f805f60608486031215610b70575f80fd5b610b7984610b1b565b9250610b8760208501610b1b565b9150604084013590509250925092565b5f60208284031215610ba7575f80fd5b5035919050565b5f8060408385031215610bbf575f80fd5b82359150610bcf60208401610b1b565b90509250929050565b5f60208284031215610be8575f80fd5b610ac882610b1b565b5f805f8060608587031215610c04575f80fd5b610c0d85610b1b565b935060208501359250604085013567ffffffffffffffff80821115610c30575f80fd5b818701915087601f830112610c43575f80fd5b813581811115610c51575f80fd5b886020828501011115610c62575f80fd5b95989497505060200194505050565b5f8060408385031215610c82575f80fd5b610c8b83610b1b565b9150610bcf60208401610b1b565b600181811c90821680610cad57607f821691505b602082108103610ccb57634e487b7160e01b5f52602260045260245ffd5b50919050565b8082018082111561034857634e487b7160e01b5f52601160045260245ffd5b83815260406020820152816040820152818360608301375f818301606090810191909152601f909201601f191601019291505056fe21702c8af46127c7fa207f89d0b0a8441bb32959a0ac7df790e9ab1a25c98926a2646970667358221220a7033f5ccc0ad04dbb1724c8b0a879df831784dfcfe5129a28714d17b59b594f64736f6c63430008180033",
  "linkReferences": {},
  "deployedLinkReferences": {}
}